S00D00004C616231302E73726563A7
S113000045C0000053C0000051C000004FC00000B4
S11300104DC000004BC0000049C0000047C00000B4
S113002045C0000043C0000041C000003FC00000C4
S11300303DC000003BC0000039C0000037C00000D4
S113004035C0000033C0000031C000002FC00000E4
S11300502DC000002BC0000029C0000027C00000F4
S113006025C0000023C0000021C000001FC0000004
S11300701DC000001BC0000019C0000017C0000014
S113008015C0000013C0000011C0000011241FBEE1
S1130090CFEFD0E1DEBFCDBF21E0A0E0B1E001C0F1
S11300A01D92A030B207E1F702D008C1A9CF00E049
S11300B021E048E060E875E280E090E079D021E05A
S11300C048E060E875E280E090E00CD081E66CD016
S11300D02FEF8FE796E1215080409040E1F700C078
S11300E00000F4CF0F93CF93DF93C42FD22FDC0102
S11300F0CB01880F991FAA1FBB1F880F991FAA1F26
S1130100BB1F9C01AD01220F331F441F551F220F3B
S1130110331F441F551F60E070E880E790E0ACD0C7
S1130120BA01A9014150510961097109BB27A72FDF
S1130130962F852F8093900049B910929500C63070
S113014029F0C73049F0C53069F411C0E5E9F0E0A1
S11301508081826080830BC0E5E9F0E08081846067
S1130160808305C0E5E9F0E080818660808301300A
S113017019F0023039F00BC0E5E9F0E080818063CA
S1130180808305C0E5E9F0E0808180628083D2301D
S113019029F4E5E9F0E080818860808388E18AB908
S11301A0DF91CF910F9108955D9BFECF8CB9089597
S11301B00F93CF93DF93C42FD22FDC01CB01880F91
S11301C0991FAA1FBB1F880F991FAA1FBB1F9C0141
S11301D0AD01220F331F441F551F220F331F441F2D
S11301E0551F60E070E880E790E046D0BA01A901AD
S11301F04150510961097109BB27A72F962F852FFB
S1130200809398004093990010929D00C63029F085
S1130210C73049F0C53069F411C0EDE9F0E08081E0
S1130220826080830BC0EDE9F0E08081846080838C
S113023005C0EDE9F0E0808186608083013019F02B
S1130240023039F00BC0EDE9F0E0808180638083F7
S113025005C0EDE9F0E0808180628083D23029F42A
S1130260EDE9F0E080818860808388E180939A00E2
S1130270DF91CF910F910895A1E21A2EAA1BBB1B07
S1130280FD010DC0AA1FBB1FEE1FFF1FA217B3075E
S1130290E407F50720F0A21BB30BE40BF50B661F74
S11302A0771F881F991F1A9469F760957095809538
S11302B090959B01AC01BD01CF010895F894FFCF47
S9030000FC
